{
  "contractName": "superadmin",
  "abi": [
    {
      "inputs": [
        {
          "internalType": "address",
          "name": "",
          "type": "address"
        }
      ],
      "name": "hosAdmin",
      "outputs": [
        {
          "internalType": "bool",
          "name": "",
          "type": "bool"
        }
      ],
      "stateMutability": "view",
      "type": "function"
    },
    {
      "inputs": [
        {
          "internalType": "address",
          "name": "",
          "type": "address"
        }
      ],
      "name": "hospitals",
      "outputs": [
        {
          "internalType": "string",
          "name": "name",
          "type": "string"
        }
      ],
      "stateMutability": "view",
      "type": "function"
    },
    {
      "inputs": [
        {
          "internalType": "address",
          "name": "",
          "type": "address"
        }
      ],
      "name": "patients",
      "outputs": [
        {
          "internalType": "string",
          "name": "name",
          "type": "string"
        },
        {
          "internalType": "string",
          "name": "aadhar",
          "type": "string"
        },
        {
          "internalType": "string",
          "name": "dob",
          "type": "string"
        },
        {
          "internalType": "string",
          "name": "sex",
          "type": "string"
        }
      ],
      "stateMutability": "view",
      "type": "function"
    },
    {
      "inputs": [
        {
          "internalType": "string",
          "name": "n",
          "type": "string"
        },
        {
          "internalType": "address",
          "name": "u",
          "type": "address"
        }
      ],
      "name": "newHospital",
      "outputs": [],
      "stateMutability": "nonpayable",
      "type": "function"
    },
    {
      "inputs": [
        {
          "internalType": "string",
          "name": "n",
          "type": "string"
        },
        {
          "internalType": "string",
          "name": "a",
          "type": "string"
        },
        {
          "internalType": "string",
          "name": "d",
          "type": "string"
        },
        {
          "internalType": "string",
          "name": "s",
          "type": "string"
        }
      ],
      "name": "newPatient",
      "outputs": [],
      "stateMutability": "nonpayable",
      "type": "function"
    },
    {
      "inputs": [],
      "name": "getPatients",
      "outputs": [
        {
          "internalType": "address[]",
          "name": "",
          "type": "address[]"
        }
      ],
      "stateMutability": "view",
      "type": "function"
    }
  ],
  "bytecode": "0x608060405234801561001057600080fd5b50610dd4806100206000396000f3fe608060405234801561001057600080fd5b50600436106100625760003560e01c80630869cfbc146100675780630a911c7a1461009a57806312ad1c37146100ca57806318cbdc33146100e8578063a86622e014610104578063f093cf8014610120575b600080fd5b610081600480360381019061007c91906108e3565b610150565b6040516100919493929190610b4f565b60405180910390f35b6100b460048036038101906100af91906108e3565b6103a0565b6040516100c19190610b12565b60405180910390f35b6100d26103c0565b6040516100df9190610af0565b60405180910390f35b61010260048036038101906100fd919061090c565b61044e565b005b61011e60048036038101906101199190610960565b610558565b005b61013a600480360381019061013591906108e3565b61071d565b6040516101479190610b2d565b60405180910390f35b600260205280600052604060002060009150905080600001805461017390610ce6565b80601f016020809104026020016040519081016040528092919081815260200182805461019f90610ce6565b80156101ec5780601f106101c1576101008083540402835291602001916101ec565b820191906000526020600020905b8154815290600101906020018083116101cf57829003601f168201915b50505050509080600101805461020190610ce6565b80601f016020809104026020016040519081016040528092919081815260200182805461022d90610ce6565b801561027a5780601f1061024f5761010080835404028352916020019161027a565b820191906000526020600020905b81548152906001019060200180831161025d57829003601f168201915b50505050509080600201805461028f90610ce6565b80601f01602080910402602001604051908101604052809291908181526020018280546102bb90610ce6565b80156103085780601f106102dd57610100808354040283529160200191610308565b820191906000526020600020905b8154815290600101906020018083116102eb57829003601f168201915b50505050509080600301805461031d90610ce6565b80601f016020809104026020016040519081016040528092919081815260200182805461034990610ce6565b80156103965780601f1061036b57610100808354040283529160200191610396565b820191906000526020600020905b81548152906001019060200180831161037957829003601f168201915b5050505050905084565b60016020528060005260406000206000915054906101000a900460ff1681565b6060600380548060200260200160405190810160405280929190818152602001828054801561044457602002820191906000526020600020905b8160009054906101000a900473ffffffffffffffffffffffffffffffffffffffff1673ffffffffffffffffffffffffffffffffffffffff16815260200190600101908083116103fa575b5050505050905090565b60008054906101000a900473ffffffffffffffffffffffffffffffffffffffff1673ffffffffffffffffffffffffffffffffffffffff163373ffffffffffffffffffffffffffffffffffffffff16146104a657600080fd5b81600460008373ffffffffffffffffffffffffffffffffffffffff1673ffffffffffffffffffffffffffffffffffffffff16815260200190815260200160002060000190805190602001906104fc9291906107c3565b5060018060008373ffffffffffffffffffffffffffffffffffffffff1673ffffffffffffffffffffffffffffffffffffffff16815260200190815260200160002060006101000a81548160ff0219169083151502179055505050565b83600260003373ffffffffffffffffffffffffffffffffffffffff1673ffffffffffffffffffffffffffffffffffffffff16815260200190815260200160002060000190805190602001906105ae9291906107c3565b5082600260003373ffffffffffffffffffffffffffffffffffffffff1673ffffffffffffffffffffffffffffffffffffffff16815260200190815260200160002060010190805190602001906106059291906107c3565b5081600260003373ffffffffffffffffffffffffffffffffffffffff1673ffffffffffffffffffffffffffffffffffffffff168152602001908152602001600020600201908051906020019061065c9291906107c3565b5080600260003373ffffffffffffffffffffffffffffffffffffffff1673ffffffffffffffffffffffffffffffffffffffff16815260200190815260200160002060030190805190602001906106b39291906107c3565b506003339080600181540180825580915050600190039060005260206000200160009091909190916101000a81548173ffffffffffffffffffffffffffffffffffffffff021916908373ffffffffffffffffffffffffffffffffffffffff16021790555050505050565b600460205280600052604060002060009150905080600001805461074090610ce6565b80601f016020809104026020016040519081016040528092919081815260200182805461076c90610ce6565b80156107b95780601f1061078e576101008083540402835291602001916107b9565b820191906000526020600020905b81548152906001019060200180831161079c57829003601f168201915b5050505050905081565b8280546107cf90610ce6565b90600052602060002090601f0160209004810192826107f15760008555610838565b82601f1061080a57805160ff1916838001178555610838565b82800160010185558215610838579182015b8281111561083757825182559160200191906001019061081c565b5b5090506108459190610849565b5090565b5b8082111561086257600081600090555060010161084a565b5090565b600061087961087484610be1565b610bb0565b90508281526020810184848401111561089157600080fd5b61089c848285610ca4565b509392505050565b6000813590506108b381610d87565b92915050565b600082601f8301126108ca57600080fd5b81356108da848260208601610866565b91505092915050565b6000602082840312156108f557600080fd5b6000610903848285016108a4565b91505092915050565b6000806040838503121561091f57600080fd5b600083013567ffffffffffffffff81111561093957600080fd5b610945858286016108b9565b9250506020610956858286016108a4565b9150509250929050565b6000806000806080858703121561097657600080fd5b600085013567ffffffffffffffff81111561099057600080fd5b61099c878288016108b9565b945050602085013567ffffffffffffffff8111156109b957600080fd5b6109c5878288016108b9565b935050604085013567ffffffffffffffff8111156109e257600080fd5b6109ee878288016108b9565b925050606085013567ffffffffffffffff811115610a0b57600080fd5b610a17878288016108b9565b91505092959194509250565b6000610a2f8383610a3b565b60208301905092915050565b610a4481610c66565b82525050565b6000610a5582610c21565b610a5f8185610c44565b9350610a6a83610c11565b8060005b83811015610a9b578151610a828882610a23565b9750610a8d83610c37565b925050600181019050610a6e565b5085935050505092915050565b610ab181610c78565b82525050565b6000610ac282610c2c565b610acc8185610c55565b9350610adc818560208601610cb3565b610ae581610d76565b840191505092915050565b60006020820190508181036000830152610b0a8184610a4a565b905092915050565b6000602082019050610b276000830184610aa8565b92915050565b60006020820190508181036000830152610b478184610ab7565b905092915050565b60006080820190508181036000830152610b698187610ab7565b90508181036020830152610b7d8186610ab7565b90508181036040830152610b918185610ab7565b90508181036060830152610ba58184610ab7565b905095945050505050565b6000604051905081810181811067ffffffffffffffff82111715610bd757610bd6610d47565b5b8060405250919050565b600067ffffffffffffffff821115610bfc57610bfb610d47565b5b601f19601f8301169050602081019050919050565b6000819050602082019050919050565b600081519050919050565b600081519050919050565b6000602082019050919050565b600082825260208201905092915050565b600082825260208201905092915050565b6000610c7182610c84565b9050919050565b60008115159050919050565b600073ffffffffffffffffffffffffffffffffffffffff82169050919050565b82818337600083830152505050565b60005b83811015610cd1578082015181840152602081019050610cb6565b83811115610ce0576000848401525b50505050565b60006002820490506001821680610cfe57607f821691505b60208210811415610d1257610d11610d18565b5b50919050565b7f4e487b7100000000000000000000000000000000000000000000000000000000600052602260045260246000fd5b7f4e487b7100000000000000000000000000000000000000000000000000000000600052604160045260246000fd5b6000601f19601f8301169050919050565b610d9081610c66565b8114610d9b57600080fd5b5056fea26469706673582212206e70a52c4ad1d93cf1b651766d92a35ffd882ca160a41efaec11fd1380b0ca1f64736f6c63430008000033",
  "immutableReferences": {},
  "source": "// SPDX-License-Identifier: AFL-3.0\r\npragma solidity ^0.8.0;\r\n\r\ncontract superadmin{\r\n    address admin;\r\n    mapping(address => bool) public hosAdmin;\r\n    \r\n    struct Patient{\r\n        string name;\r\n        string aadhar;\r\n        string dob;\r\n        string sex;\r\n        bytes32[] docs;\r\n    }\r\n    mapping(address => Patient) public patients;\r\n    address[] patList;\r\n    \r\n    struct Hospital{\r\n        string name;\r\n    }\r\n    mapping(address => Hospital) public hospitals;\r\n    \r\n    modifier restricted() {\r\n        require(msg.sender == admin);\r\n        _;\r\n    }\r\n    \r\n    function newHospital(string memory n,address u) public restricted{\r\n        hospitals[u].name = n;\r\n        hosAdmin[u]=true;\r\n    }\r\n    \r\n    function newPatient(string memory n,string memory a, string memory d, string memory s) public{\r\n        patients[msg.sender].name=n;\r\n        patients[msg.sender].aadhar=a;\r\n        patients[msg.sender].dob = d;\r\n        patients[msg.sender].sex = s;\r\n        patList.push(msg.sender);\r\n    }\r\n    \r\n    /*function upDoc(bytes32 hash) public{\r\n        require(hosAdmin[msg.sender]);\r\n    }*/\r\n    \r\n    function getPatients() public view returns (address[] memory) {\r\n        return patList;\r\n    }\r\n}",
  "sourcePath": "D:\\Github Repos\\Hospital-Records-Blockchain\\contracts\\medic.sol",
  "compiler": {
    "name": "solc",
    "version": "0.8.0+commit.c7dfd78e.Emscripten.clang"
  },
  "schemaVersion": "3.4.3",
  "updatedAt": "2021-11-22T13:03:15.457Z",
  "devdoc": {
    "kind": "dev",
    "methods": {},
    "version": 1
  },
  "userdoc": {
    "kind": "user",
    "methods": {},
    "version": 1
  }
}